:100000000A128A11FC2F00308A000408840A820731
:100010000034523445344134523420344C34453465
:1000200046345434203444344F344F345234203422
:1000300020340034463452344F344E345434203457
:100040004C34453446345434203444344F344F34E3
:100050005234203400345234453441345234203444
:1000600052344934473448345434203444344F34BF
:100070004F3452342034003441344C344C34203426
:1000800044344F344F3452345334203443344C349A
:100090004F345334453444340034463452344F34AE
:1000A0004E34543420345234493447344834543470
:1000B000203444344F344F345234003449345334B0
:0C00C00020344F34503445344E340034AA
:100D0A00F200720883120313870006108610061574
:100D1A002130F1007630F000F00B912EF10B912E7C
:100D2A0000008312031306110800F20072088312EE
:100D3A00031387000614861006152130F100763059
:100D4A00F000F00BA62EF10BA62E0000831203135F
:100D5A0006110800F601F701C52E7608730784000C
:100D6A000A128A1103200A128A110A128A119A2671
:100D7A000A128A110130F6070318F70A0030F7073A
:100D8A0075087702031DCB2E74087602031CCE2E3B
:100D9A00CF2EB22E080038300A128A1185260A127E
:100DAA008A118230F400DD30F300F30BDA2EF40BF3
:100DBA00DA2EDF2E0C300A128A1185260A128A11BF
:100DCA0006300A128A1185260A128A1101300A127D
:100DDA008A1185260A128A118230F400DD30F30066
:100DEA00F30BF52EF40BF52EFA2E0800F0308316CD
:100DFA00031386008701FF3088000A128A11D02661
:100E0A000A128A110A128A1136270A128A118312C1
:100E1A000313061E112F122F142F8615072F861E55
:100E2A00172F182F2C2F08181B2F1C2F282F881824
:100E3A001F2F202F282F0819232F242F282F881DF2
:100E4A00272F282F2A2F8615072F8611072F061FCF
:100E5A002F2F302F322F8611072F072F0A128A11B0
:100E6A000028F80183120313081C3C2F3D2F612F21
:100E7A0080300A128A1185260A128A111230F3006A
:100E8A001030F4000030F5000A128A11AF260A1257
:100E9A008A11C5300A128A1185260A128A11563019
:100EAA00F3000730F4000030F5000A128A11AF2669
:100EBA000A128A110130F80083120313881C662F64
:100ECA00672F8B2F80300A128A1185260A128A11FF
:100EDA004530F3001030F4000030F5000A128A1190
:100EEA00AF260A128A11C5300A128A1185260A12F9
:100EFA008A115630F3000730F4000030F5000A1268
:100F0A008A11AF260A128A110130F80083120313DC
:100F1A00081D902F912FB52F80300A128A1185262D
:100F2A000A128A110130F3001030F4000030F50083
:100F3A000A128A11AF260A128A11C5300A128A11B8
:100F4A0085260A128A115630F3000730F400003061
:100F5A00F5000A128A11AF260A128A110130F80026
:100F6A0083120313881DBA2FBB2FDF2F80300A127A
:100F7A008A1185260A128A112330F3001030F400F0
:100F8A000030F5000A128A11AF260A128A11C530FA
:100F9A000A128A1185260A128A115630F30007307E
:100FAA00F4000030F5000A128A11AF260A128A11DB
:100FBA000130F8007808031DE32FE42FFB2F0130DE
:100FCA000A128A1185260A128A1180300A128A1197
:100FDA0085260A128A113430F3001030F4000030EA
:100FEA00F5000A128A11AF260A128A110800830133
:060FFA000A128A11FB2E11
:02400E00FA1F97
:00000001FF
